:020000040000FA
:100000009E31002E8A01BE2988018A01911C262872
:10001000911070206E206C206A208D30840000309A
:1000200085000014001680163B10BB103B110D1C00
:100030003B140D1EBB148D1E3B15A30B073220086D
:10004000A3000010BB1900123B1A80122000911E61
:100050000132C42020001119E12112185722090091
:1000600020005F30FF002030840085014A2050309E
:10007000FF00A03084004A20850A4120850A4120E3
:10008000850A5030FF00203084004A205030FF00A5
:10009000A03084008001840AFF0BFC33080000308C
:1000A000A4003730840085019A201A00A40A3C304D
:1000B0000402031DF93308000030A4003730840027
:1000C00085011200A500A420A40A3C300402031DEF
:1000D000F83308002D3005322B300332293001323D
:1000E0002730840000308500130000040319080045
:1000F00001308002840A0301803B080020002C08A4
:100100002D04080020002A082B04080020002808DD
:1001100029040800200026082704080005300332BF
:10012000413001321930F70000000000F70BFC33BA
:100130000800A4002408230091001513951315143A
:10014000130820000800A4002408230091002000C8
:100150002508230093001513951315158B138B1B7E
:10016000FD3355309600AA30960095148B179518DC
:10017000FE33151120000800301908002E08230056
:100180009A0020003015080023001D080639031DC1
:10019000053219082000AF00B01408001908AF019B
:1001A0001D121D119D101D1620000800F8002200D0
:1001B000A00A22081F39A20A263E840001308500C9
:1001C000780880002000080022007810A008031999
:1001D0000A327814A00323081F39A30A263E84009C
:1001E000013085000008200008002200A001A301C2
:1001F000A2012000080022002008200008002200A0
:10020000210820000800F8002200A10A24081F3954
:10021000A40A463E84000130850078088000200052
:1002200008002200A10803190232A103A403200040
:10023000080022007810A10803190A327814A103DB
:1002400025081F39A50A463E8400013085000008B4
:10025000200008002100A008031907322000A6088A
:10026000031D0332B1152100A001E420781C080011
:10027000F8000530A6002100A008031D0532DD307E
:100280007802031920141832A0180632DD307802E3
:10029000031D9829A0141032210020190F32A30148
:1002A000A20121152000380821007802031D211128
:1002B00020157808A400A30620000800201A0C329C
:1002C000A1152000390821007802031DA111201674
:1002D0007808A500A306F033201B0F322208A63EA3
:1002E0008400003085007808A3068000A20A04304C
:1002F0002202031DE1332017DF3378082302031D98
:100300001732A630840000308500AA308600003005
:1003100087000430F80012001E00F80BFC33A11413
:100320002114211D2110A11D2110A0012000080071
:10033000A001F52801300430F800AE30860000300E
:10034000870000301E00F80BFD332000080020005D
:10035000FA013908FA0603213808FA0603212100B8
:100360000430F900AE308600003087001600FA062F
:100370000321F90BFB337A0803219A298931B12132
:100380008131882377236400FB20031D2A2121006B
:10039000A11C03328831042081312000111ABC20B5
:1003A000B01C03322F08B010D620301D05321921A1
:1003B000781C0232AE0030119D2220003B18BE296D
:1003C000C3292500621A2C2A6218E92962191F2AFA
:1003D000542A62106108803E860087012130873DE3
:1003E000011D152A6135903E840085012130853D2F
:1003F000120091071300923D093093009430E300FE
:100400001130E4001200E3021200E43B6135B03E1B
:10041000840085012130853D63081A0064081A00B4
:1004200001146215200011115B2A943091071130DC
:10043000923D62160A309300200011115B2A61354B
:10044000B03E840085012130853D120091071200E5
:10045000923D62116216522A62126214F430110740
:10046000910098000130123D92009900610A07390D
:10047000E100803E860087012130873D22000C0884
:10048000F8392500610422008C0025000830011D88
:100490000A3093000830011F0A309A002000111121
:1004A000121008000A3093002000111108002500E6
:1004B000E2198C2A9A2A25006108803E860087016D
:1004C0002130873D011F872A6135103E903E840010
:1004D00085012130853D120098071300993D0930B0
:1004E0009A009430E3001130E4001200E30212009D
:1004F000E43B6135103EB03E840085012130853DEE
:1005000063081A0064081A000116E2159A2A94304A
:1005100098071130993D982A6135103EB03E84000D
:1005200085012130853D120098071200993DE211A6
:100530000A309A0020001210080025006F23E019ED
:10054000A62A001D172B001C172BAA2A001F172BE9
:10055000001E172BE01D0010E01900126035203E30
:10056000840085012130853D6035903E86008701FD
:100570002130873D01080002FC00840A860A010838
:10058000003BFD0086037C087D040319122B1B230E
:100590006F23E01D8010E0198012FD1FF82AE01D76
:1005A0008011E01980134F23F8007D0FE02A7808AE
:1005B0007C07031CE02A780BDE2AE02AF803D72AFE
:1005C00078080102FC00860A0030013BFD0060351E
:1005D0008B138B1BE82A25006035903E860087012F
:1005E0002130873D7C081E007D081E008B17172BCD
:1005F000E01D8015E01980174F23F800FD08031D4A
:100600000A2B78087C0203180A2B780B082B0A2B7C
:10061000F803012B78080107FC00860A0301013D5D
:10062000FD00E72A6F23E01D8014E0198016600AA0
:100630000F39E00008006723E019212B001808009B
:10064000232B001A08004F23F8005723F9007802E3
:100650000319402B0318402B5F23F8077808790211
:10066000780803187908F8006035E03E84008501B9
:100670002130853D7808800701310301803D462BFC
:100680006723E01D0014E019001608006008103E02
:10069000840085012130853D7808800008006008CD
:1006A000103E840085012130853D00080800600867
:1006B000F03E840085012030853D00080800600878
:1006C000003E840085012130853D00080800600857
:1006D0000739883E840085012130853D0800600887
:1006E0000739803E840085012130853D08002200C5
:1006F0008C110C12250091019201980199010A3088
:1007000093009A00621421001115121420000800B1
:100710000301F03E840085012030853D3030C02348
:100720000130C0230130C023B830F8000B30F9008D
:10073000B7230830F8000730F900B7236830F80015
:100740001030F900B7232230C8230301903E840003
:1007500085012130853DB830F8000B30F900B72312
:100760008830F8001330F900B723CB232A32103039
:10077000FA0078081A0079081A00FA0BB92B080059
:10078000F8001030F90078081A00F90BC42B0800A3
:10079000F8000830C22B20000530A400F03084009F
:1007A000203085002030F900DB23403084002130E8
:1007B00085004830F9009A201A00A40AF90BFB338F
:1007C000080020006D30A400003084002230850035
:1007D0008030F900F03320000530A400F0308400B0
:1007E000203085002030F900FB2340308400213088
:1007F00085004830F9001200A500A420A40AF90BD6
:10080000FA33080020006D30A4000030840022304C
:1008100085008030F900EF330F39F8007835203E3D
:10082000840085012130853D7C081A007D081A006E
:100830007808103E840085012130853D013080001C
:1008400078080739803E840085012130853DF81DF8
:100850008010F8198012F81D0015F8190017780893
:100860000739883E840085012130853DF81D001040
:10087000F81900127835E03E840085012130853D6D
:1008800003011A001A00080010307D02031C512CCD
:10089000031D602C68307C02031908000318602CCB
:1008A000080007307D02031C5B2C031D0800083084
:1008B0007C02031808000830FC000730FD00080027
:1008C0006830FC001030FD000800F800780A603E37
:1008D000840085012130853D13007D02031C792CA5
:1008E000031D892C00087C02031908000318892CB9
:1008F0000800780A403E840085012130853D1300C0
:100900007D02031C892C031D080000087C020318CB
:0C09100008001200FC000008FD000800B8
:101000008131A721883108002100A1102118023266
:10101000200008002000AA30860000308700AE3093
:101020008400003085001600F800F039031D1332EB
:1010300078080F390B00080067327A32B528D928B2
:10104000F6280F29292908000800080008000800D0
:10105000080008000800803C031D133278080F398F
:101060000B0008004A325332A728C128EA28002979
:101070001A290800080008000800080008000800F5
:1010800008007808F039203C031D01320800780878
:10109000F039B03C031D013208007808F039903C6B
:1010A000031D13320F3078050B00080034293E2948
:1010B00049295A29612968296C29702901007B294D
:1010C000080008000800080008007808F039A03C73
:1010D000031D03320F3078050B0008008129872992
:1010E00008000800080008000800080008008D2912
:1010F0000800080008000800080001300102031879
:1011000087331600B700AC2937081A0000281600EC
:101110000F39F8001600FC001600FD007808843135
:101120000C248831AC2979081E007A081E00AC29ED
:1011300016000F39F800F83520307807860087014F
:101140002130873D16001A0016001A0000281600EC
:101150000F39F8001600F900003078078600870183
:101160002130873D79081E00AC2916000F39F800A0
:1011700000307807860087012130873D16001A006D
:10118000002816000F39F8001600F9007808073912
:10119000803E860087012130873D791C0532F81D8D
:1011A0000115F8190117AC29F81D0111F8190113DF
:1011B000AC2916000F39F8000739803E86008701F8
:1011C0002130873DF8190332011900140028011B52
:1011D0000014002816000F39F8001600F900F0304E
:1011E0007807860087012030873DB22816000F3926
:1011F000F800F0307807860087012030873DBE2850
:1012000016000F39F800F8351600F9001600FA003C
:1012100040307807860087012130873D93281600EB
:101220000F39F800F8354030780786008701213003
:10123000873DA22816000F39F800F8351600F9008E
:101240001600FA0060307807860087012130873D5C
:10125000932816000F39F800F835603078078600BB
:1012600087012130873DA22816000F39F800103081
:101270007807860087012130873DBE2816000F3988
:10128000F800F83590307807860087012130873DD7
:10129000A22816000F39F8000739803E8600870122
:1012A0002130873DF8190332811800140028811A73
:1012B0000014002880315C2089318331EB2389318F
:1012C000AC2980314F2089318331CB238931AC293E
:1012D000843102248931AC298331E1238931AC295D
:1012E00031081A0032081A0033081A0034081A00AC
:1012F000B111B2010028FF30A5008031A32089314F
:1013000001001600B80080315C20893100281600E9
:10131000B90080315C2089310028F90179089621D3
:10132000003803190800AD21F90AF8330B004434E2
:101330004D344634453420345334533443343134FB
:101340003634503453342034763431342E343034FF
:1013500020340A3400340800FF3081310321893100
:10136000080021009517951295111514951415155F
:101370002100F03099001730970024008C162300CC
:1013800000308C0000308D0020004F309C007D30FC
:101390009B00210091142000213098009913803186
:1013A00030208931640080314F20893122009D1521
:1013B000200004308D0018308C00210060308C003B
:1013C000F7308D00230008309F00CF309B000030A5
:1013D0009C0024309E0090309D002100911620003A
:1013E000640020006430A0000130A3006430AC0031
:0813F00064000B178B170800C5
:103C00009E270427FF3A031D0B322A30FE262A3056
:103C1000FE26A001A101A501A601462712260D2717
:103C200080310228AC10AA01A801AD01DE262C10BB
:103C3000ED26F8003A307802031D03320130AA0065
:103C4000F633AA080319F43330307802031CEB333F
:103C50003A307802031C0A3241307802031CE33305
:103C6000473078020318DF330730F8023030F802AB
:103C70002C180432780EAB002C14DA337808AB071A
:103C80002A0807390B00CF330632113214321732AB
:103C90001D322532C83341302B02031C03322B3036
:103CA000FE26132E2B08A700AD07AA0A172E2B08F5
:103CB000A400AD07FA332B08A300AD07F6332B0899
:103CC000A900AD07A7080319AA0AEF332B081A00A9
:103CD000AD07A80A28082702031D172EE633F801AE
:103CE0002D0878022B02031903322D30FE26132EE5
:103CF0002908F839031D183229080B000B32063247
:103D000013321232093210320F320E32AC18CD2675
:103D10002A30FE2E96260532DE261200A60012005C
:103D2000A5002A30FE26132E3D30FC33250826043C
:103D3000031D0800A436A30C1E302402031808003B
:103D4000AC1C0D3224082102031D0832E03020058E
:103D5000F800E0302305780203190A32CD26230843
:103D6000E039A0002408A100FF30E03A2305A200BA
:103D7000DE262235003E8600213087002808F90023
:103D80002836A20712001E00F90BFC33AC142030B9
:103D9000220203190232031C0800E32651270030D7
:103DA000840021308500E3262C2709180632E326FB
:103DB0001F27091C6327E8267A27462F80308400B6
:103DC000213085000800403086002130870008003F
:103DD000003086002130870008002000911EFD334E
:103DE00023001D080639031D0332190820000800AE
:103DF00019081D121D119D101D16EF33111EFE33E3
:103E000023009A00200008002300FF3091001513C2
:103E1000951315141308200008002300FF309100AB
:103E20000030930015139513151555309600AA30E0
:103E3000960095149518FE331511200008002030C7
:103E4000F9001600FF3C031D003416003F3C031D23
:103E50000034F90BF63301342030F9001200F7007A
:103E60001200F8003F3C031D0632770A031D03329F
:103E700016001600083216007702031D00341600E3
:103E80007802031D0034F90BE9330134E826AC1045
:103E90002030F900FF301E003F301E00F90BFA33CE
:103EA00008007227151395172030F900151400002B
:103EB000000013081E0014081E00F90B0232200037
:103EC0000800910AF3337227951715131516151567
:103ED00055309600AA309600951400000000151188
:103EE0002000080021082300920020002008230061
:103EF0009100080072279517151315159516203097
:103F0000F900160093001600940011081F3A1F399B
:103F10000319093255309600AA3096009514000016
:103F20000000910AEE33951255309600AA309600A3
:103F300095140000000015112000080021009517BD
:103F400095129511151495141515F0309900173028
:103F5000970024008C16230000308C0000308D0068
:103F6000200004308D0018308C00210060308C005F
:103F7000F7308D00230008309F00CF309B000030C9
:103F80009C0024309E0090309D0020008B13080080
:020000040001F9
:08000000010000000D000100E9
:10E00000000001000200000000003000300030007D
:10E010003000300030003000300030003000300080
:10E0200030003000300030003000010001000100FD
:10E0300001000100010001000100010001000100D8
:10E0400001000100010001000100080008000800B3
:10E050000800080008000800080008000800080080
:10E060000800080008000800080008000800080070
:10E070000800080008000800080008000800080060
:10E08000080008000800080008000F000F000F003B
:10E090000F000F000F000F000F000F000F000F0008
:10E0A0000F000F000F000F000F000F000F000F00F8
:10E0B0000F000F000F000F000F000F000F000F00E8
:10E0C0000F000F000F000F000F002200220022009F
:10E0D0002200220022002200220000000000000096
:10E0E0000000000000000000000000000000000030
:10E0F0000000000000000000000000000000000020
:10E10000000000000000000000000000000000000F
:10E1100000000000000000000000000000000000FF
:10E1200000000000000000000000000000000000EF
:10E1300000000000000000000000000000000000DF
:10E1400000000000000000000000000000000000CF
:10E1500000000000000000000000000000000000BF
:10E1600000000000000000000000000000000000AF
:10E17000000000000000000000000000000000009F
:10E18000000000000000000000000000000000008F
:10E19000000000000000000000000000000000007F
:10E1A000000000000000000000000000000000006F
:10E1B000000000000000000000000000000000005F
:10E1C000000000000000000000000000000000004F
:0AE1D0000000000000000000000045
:02E1FE0000001F
:02000E00A42F1D
:02001000FF1ED1
:00000001FF
