:020000040000FA
:100000009E31002E8A01BB2988018A01911C272874
:10001000911085016D206B20692067208D30840050
:10002000003085000014001680163B10BB103B11F9
:100030000D1C3B140D1EBB148D1E3B15A30B07326C
:100040002008A3000010BB1900123B1A80122000E8
:100050001119DD2112185322090020005F30FF0022
:1000600020308400850147205030FF00A0308400FC
:100070004720850A3E20850A3E20850A5030FF0031
:100080002030840047205030FF00A03084008001E1
:10009000840AFF0BFC3308000030A40037308400D2
:1000A000850197201A00A40A3C300402031DF9338D
:1000B00008000030A4003730840085011200A5003C
:1000C000A120A40A3C300402031DF83308002D309F
:1000D00005322B30033229300132273084000030C2
:1000E0008500130000040319080001308002840A0F
:1000F0000301803B080020002C082D04080020008C
:100100002A082B04080020002808290408002000E1
:100110002608270408000530033241300132193027
:10012000F70000000000F70BFC330800A4002408CF
:1001300023009100151395131514130820000800CF
:10014000A400240823009100200025082300930028
:100150001513951315158B138B1BFD335530960016
:10016000AA30960095149518FE3315118B172000B0
:100170000800301908002E0823009A0020003015CE
:10018000080023001D080639031D05321908200048
:10019000AF00B01408001908AF011D121D119D1009
:1001A0001D1620000800F8002200A00A22081F39AE
:1001B000A20A263E840001308500780880002000D5
:1001C000080022007810A00803190A327814A0034E
:1001D00023081F39A30A263E840001308500000849
:1001E000200008002200A001A301A20120000800B5
:1001F000220020082000080022002108200008001A
:10020000F8002200A10A24081F39A40A463E8400EF
:100210000130850078088000200008002200A10835
:1002200003190232A103A403200008002200781061
:10023000A10803190A327814A10325081F39A50A59
:10024000463E84000130850000082000080021009F
:10025000A008031907322000A608031D0332B115B8
:100260002100A001E120781C0800F8000530A6005C
:100270002100A008031D0532DD3078020319201487
:100280001832A0180632DD307802031D9529A0141B
:100290001032210020190F32A301A20121152000E4
:1002A000380821007802031D211120157808A400C8
:1002B000A30620000800201A0C32A11520003908DE
:1002C00021007802031DA11120167808A500A306BD
:1002D000F033201B0F322208A63E84000030850038
:1002E0007808A3068000A20A04302202031DE1332D
:1002F0002017DF3378082302031D1732A63084004D
:1003000000308500AA308600003087000430F800F5
:1003100012001E00F80BFC33A1142114211D211022
:10032000A11D2110A00120000800A001F228013029
:100330000430F800AE3086000030870000301E0028
:10034000F80BFD33200008002000FA013908FA06F6
:1003500000213808FA06002121000430F900AE30EF
:100360008600003087001600FA060021F90BFB33E7
:100370007A080021972989319421813184237323BC
:100380006400F820031D27212100A11C03328831BD
:1003900004208131992220003B18BB29111AB92071
:1003A000B01C03322F08B010D320301D05321621A7
:1003B000781C0232AE003011C0292500621A282AAA
:1003C0006218E52962191B2A502A62106108803ED2
:1003D000860087012130873D011D112A6135903E3D
:1003E000840085012130853D120091071300923D64
:1003F000093093009430E3001130E4001200E3026E
:100400001200E43B6135B03E840085012130853D1A
:1004100063081A0064081A00011462152000111103
:10042000572A943091071130923D62160A3093009A
:1004300020001111572A6135B03E8400850121301A
:10044000853D120091071200923D621162164E2AFC
:1004500062126214F4301107910098000130123DCD
:1004600092009900610A0739E100803E8600870109
:100470002130873D22000C08F83925006104220054
:100480008C0025000830011D0A3093000830011F40
:100490000A309A0020001111121008000A3093004F
:1004A0002000111108002500E219882A962A25004B
:1004B0006108803E860087012130873D011F832A25
:1004C0006135103E903E840085012130853D12004B
:1004D00098071300993D09309A009430E3001130D9
:1004E000E4001200E3021200E43B6135103EB03E2E
:1004F000840085012130853D63081A0064081A00D4
:100500000116E215962A943098071130993D942AE5
:100510006135103EB03E840085012130853D1200DA
:1005200098071200993DE2110A309A00200012103B
:10053000080025006B23E019A22A001D132B001CC4
:10054000132BA62A001F132B001E132BE01D0010D7
:10055000E01900126035203E840085012130853D80
:100560006035903E860087012130873D01080002FA
:10057000FC00840A860A0108003BFD0086037C0813
:100580007D0403190E2B17236B23E01D8010E01947
:100590008012FD1FF42AE01D8011E01980134B2307
:1005A000F8007D0FDC2A78087C07031CDC2A780B16
:1005B000DA2ADC2AF803D32A78080102FC00860A2A
:1005C0000030013BFD0060358B138B1BE42A2500B6
:1005D0006035903E860087012130873D7C081E00F3
:1005E0007D081E008B17132BE01D8015E019801766
:1005F0004B23F800FD08031D062B78087C02031826
:10060000062B780B042B062BF803FD2A780801072C
:10061000FC00860A0301013DFD00E32A6B23E01D77
:100620008014E0198016600A0F39E0000800632387
:10063000E0191D2B001808001F2B001A08004B237F
:10064000F8005323F900780203193C2B03183C2BC4
:100650005B23F80778087902780803187908F8000E
:100660006035E03E840085012130853D78088007B3
:1006700001310301803D422B6323E01D0014E0198A
:10068000001608006008103E840085012130853D79
:100690007808800008006008103E84008501213041
:1006A000853D000808006008F03E84008501203088
:1006B000853D000808006008003E84008501213067
:1006C000853D0008080060080739883E84008501E0
:1006D0002130853D080060080739803E840085018F
:1006E0002130853D080022008C110C12250091015B
:1006F0009201980199010A3093009A006214210036
:1007000011151214200008000301F03E8400850139
:100710002030853D3030BF230130BF230130BF235F
:100720000301203E840085012130853DB830F8006A
:100730000B30F900B6230830F8000730F900B62373
:100740006830F8001030F900B6232230C7230301C7
:10075000903E840085012130853DB830F8000B3093
:10076000F900B6238830F8001330F9001030FA0091
:1007700078081A0079081A00FA0BB82B0800F8005C
:100780001030F90078081A00F90BC32B0800F800A4
:100790000830C12B0F39F8007835203E84008501E0
:1007A0002130853D7C081A007D081A007808103E2B
:1007B000840085012130853D0130800078080739AB
:1007C000803E840085012130853DF81D8010F81998
:1007D0008012F81D0015F819001778080739883EAF
:1007E000840085012130853DF81D0010F8190012A4
:1007F0007835E03E840085012130853D03011A00F3
:100800001A00080010307D02031C0F2C031D1E2C43
:1008100068307C020319080003181E2C08000730FA
:100820007D02031C192C031D080008307C020318EC
:1008300008000830FC000730FD0008006830FC00AC
:100840001030FD000800F800780A603E8400850141
:100850002130853D13007D02031C372C031D472CDE
:1008600000087C02031908000318472C0800780AC6
:10087000403E840085012130853D13007D02031C2C
:10088000472C031D080000087C0203180800120012
:08089000FC000008FD00080057
:101000008131A421883108002100A1102118023269
:10101000200008002000AA30860000308700AE3093
:101020008400003085001600F800F039031D1332EB
:1010300078080F390B00080067327C32B728DB28AC
:10104000F82811292B2908000800080008000800CA
:10105000080008000800803C031D133278080F398F
:101060000B0008004A325332A928C328EC28022971
:101070001C290800080008000800080008000800F3
:1010800008007808F039203C031D01320800780878
:10109000F039B03C031D013208007808F039903C6B
:1010A000031D13320F3078050B0008003629402944
:1010B00008004B294F2908000800532901005E2928
:1010C000080008000800080008007808F039A03C73
:1010D000031D03320F3078050B00080064296A29CC
:1010E000080008000800080008000800080070292F
:1010F0000800080008000800080001300102031879
:1011000087331600B7008F2937081A000028160009
:101110000F39F800F8351600F9001600FA002030F3
:101120007807860087012130873D79081E007A08FC
:101130001E008F2916000F39F800F8352030780787
:10114000860087012130873D16001A0016001A001C
:10115000002816000F39F8001600F9000030780753
:10116000860087012130873D79081E008F291600EF
:101170000F39F80000307807860087012130873D5D
:1011800016001A00002816000F39F8001600F900A2
:1011900078080739803E860087012130873D791C19
:1011A0000532F81D0115F81901178F29F81D0111D5
:1011B000F81901138F2916000F39F8000739803EFE
:1011C000860087012130873DF81903320119001488
:1011D0000028011B0014002816000F39F800160023
:1011E000F900F0307807860087012030873DB42869
:1011F00016000F39F800F03078078600870120309C
:10120000873DC02816000F39F800F8351600F900A0
:101210001600FA0040307807860087012130873DAC
:10122000952816000F39F800F83540307807860009
:1012300087012130873DA42816000F39F800F835C2
:101240001600F9001600FA00603078078600870162
:101250002130873D952816000F39F800F8356030A9
:101260007807860087012130873DA42816000F39B2
:10127000F80010307807860087012130873DC028AC
:1012800016000F39F800F83590307807860087018E
:101290002130873DA4288031592089318F29803120
:1012A0004C2089318F2931081A0032081A0033087E
:1012B0001A0034081A00B111B2010028FF30A5004D
:1012C0008031A020893101001600B80080315920FA
:1012D000893100281600B900803159208931002851
:1012E000F901790879210038031908009021F90AD9
:1012F000F8330B0044344D344634453420345334F1
:101300005334433431343634503453342034763407
:1013100031342E34303420340A3400340800FF30A5
:10132000813100218931080021009517951295110E
:101330001514951415152100F030990017309700F9
:1013400024008C16230000308C0000308D0020001B
:101350004F309C007D309B00210091142000013013
:101360009800991380312D208931640080314C2000
:101370008931250093012100111522009D152000BF
:1013800004308D0018308C00210060308C00F73064
:101390008D00230008309F00CF309B0000309C0060
:1013A00024309E0090309D002100911620006400A2
:1013B00020006430A0000130A3006430AC00640061
:0613C0000B178B1708005B
:103C00009E270427FF3A031D0B322A30FE262A3056
:103C1000FE26A001A101A501A601462712260D2717
:103C200080310228AC10AA01A801AD01DE262C10BB
:103C3000ED26F8003A307802031D03320130AA0065
:103C4000F633AA080319F43330307802031CEB333F
:103C50003A307802031C0A3241307802031CE33305
:103C6000473078020318DF330730F8023030F802AB
:103C70002C180432780EAB002C14DA337808AB071A
:103C80002A0807390B00CF330632113214321732AB
:103C90001D322532C83341302B02031C03322B3036
:103CA000FE26132E2B08A700AD07AA0A172E2B08F5
:103CB000A400AD07FA332B08A300AD07F6332B0899
:103CC000A900AD07A7080319AA0AEF332B081A00A9
:103CD000AD07A80A28082702031D172EE633F801AE
:103CE0002D0878022B02031903322D30FE26132EE5
:103CF0002908F839031D183229080B000B32063247
:103D000013321232093210320F320E32AC18CD2675
:103D10002A30FE2E96260532DE261200A60012005C
:103D2000A5002A30FE26132E3D30FC33250826043C
:103D3000031D0800A436A30C1E302402031808003B
:103D4000AC1C0D3224082102031D0832E03020058E
:103D5000F800E0302305780203190A32CD26230843
:103D6000E039A0002408A100FF30E03A2305A200BA
:103D7000DE262235003E8600213087002808F90023
:103D80002836A20712001E00F90BFC33AC142030B9
:103D9000220203190232031C0800E32651270030D7
:103DA000840021308500E3262C2709180632E326FB
:103DB0001F27091C6327E8267A27462F80308400B6
:103DC000213085000800403086002130870008003F
:103DD000003086002130870008002000911EFD334E
:103DE00023001D080639031D0332190820000800AE
:103DF00019081D121D119D101D16EF33111EFE33E3
:103E000023009A00200008002300FF3091001513C2
:103E1000951315141308200008002300FF309100AB
:103E20000030930015139513151555309600AA30E0
:103E3000960095149518FE331511200008002030C7
:103E4000F9001600FF3C031D003416003F3C031D23
:103E50000034F90BF63301342030F9001200F7007A
:103E60001200F8003F3C031D0632770A031D03329F
:103E700016001600083216007702031D00341600E3
:103E80007802031D0034F90BE9330134E826AC1045
:103E90002030F900FF301E003F301E00F90BFA33CE
:103EA00008007227151395172030F900151400002B
:103EB000000013081E0014081E00F90B0232200037
:103EC0000800910AF3337227951715131516151567
:103ED00055309600AA309600951400000000151188
:103EE0002000080021082300920020002008230061
:103EF0009100080072279517151315159516203097
:103F0000F900160093001600940011081F3A1F399B
:103F10000319093255309600AA3096009514000016
:103F20000000910AEE33951255309600AA309600A3
:103F300095140000000015112000080021009517BD
:103F400095129511151495141515F0309900173028
:103F5000970024008C16230000308C0000308D0068
:103F6000200004308D0018308C00210060308C005F
:103F7000F7308D00230008309F00CF309B000030C9
:103F80009C0024309E0090309D0020008B13080080
:020000040001F9
:08000000010000000D000100E9
:0AE000000000010002000000000013
:02E1FE0000001F
:02000E00A42F1D
:02001000FF1ED1
:00000001FF
